{
  "address": "0x5Fd60036C834A30Fc794D395D8e44A9BF92d6ad4",
  "abi": [
    {
      "inputs": [
        {
          "internalType": "address",
          "name": "_dao",
          "type": "address"
        },
        {
          "internalType": "address",
          "name": "_guardian",
          "type": "address"
        }
      ],
      "stateMutability": "nonpayable",
      "type": "constructor"
    },
    {
      "anonymous": false,
      "inputs": [
        {
          "indexed": false,
          "internalType": "uint256",
          "name": "epochId",
          "type": "uint256"
        },
        {
          "indexed": false,
          "internalType": "uint256",
          "name": "juniorProfits",
          "type": "uint256"
        },
        {
          "indexed": false,
          "internalType": "uint256",
          "name": "seniorProfits",
          "type": "uint256"
        }
      ],
      "name": "EpochEnd",
      "type": "event"
    },
    {
      "anonymous": false,
      "inputs": [
        {
          "indexed": false,
          "internalType": "address",
          "name": "caller",
          "type": "address"
        },
        {
          "indexed": false,
          "internalType": "address",
          "name": "destination",
          "type": "address"
        },
        {
          "indexed": false,
          "internalType": "uint256",
          "name": "amount",
          "type": "uint256"
        }
      ],
      "name": "FeesTransfer",
      "type": "event"
    },
    {
      "anonymous": false,
      "inputs": [
        {
          "indexed": true,
          "internalType": "address",
          "name": "user",
          "type": "address"
        },
        {
          "indexed": false,
          "internalType": "uint256",
          "name": "epochId",
          "type": "uint256"
        },
        {
          "indexed": false,
          "internalType": "uint256",
          "name": "underlyingIn",
          "type": "uint256"
        },
        {
          "indexed": false,
          "internalType": "uint256",
          "name": "currentQueueBalance",
          "type": "uint256"
        }
      ],
      "name": "JuniorJoinEntryQueue",
      "type": "event"
    },
    {
      "anonymous": false,
      "inputs": [
        {
          "indexed": true,
          "internalType": "address",
          "name": "user",
          "type": "address"
        },
        {
          "indexed": false,
          "internalType": "uint256",
          "name": "epochId",
          "type": "uint256"
        },
        {
          "indexed": false,
          "internalType": "uint256",
          "name": "tokensIn",
          "type": "uint256"
        },
        {
          "indexed": false,
          "internalType": "uint256",
          "name": "currentQueueBalance",
          "type": "uint256"
        }
      ],
      "name": "JuniorJoinExitQueue",
      "type": "event"
    },
    {
      "anonymous": false,
      "inputs": [
        {
          "indexed": true,
          "internalType": "address",
          "name": "user",
          "type": "address"
        },
        {
          "indexed": false,
          "internalType": "uint256",
          "name": "epochId",
          "type": "uint256"
        },
        {
          "indexed": false,
          "internalType": "uint256",
          "name": "tokensOut",
          "type": "uint256"
        }
      ],
      "name": "JuniorRedeemTokens",
      "type": "event"
    },
    {
      "anonymous": false,
      "inputs": [
        {
          "indexed": true,
          "internalType": "address",
          "name": "user",
          "type": "address"
        },
        {
          "indexed": false,
          "internalType": "uint256",
          "name": "epochId",
          "type": "uint256"
        },
        {
          "indexed": false,
          "internalType": "uint256",
          "name": "underlyingOut",
          "type": "uint256"
        }
      ],
      "name": "JuniorRedeemUnderlying",
      "type": "event"
    },
    {
      "anonymous": false,
      "inputs": [],
      "name": "PauseSystem",
      "type": "event"
    },
    {
      "anonymous": false,
      "inputs": [],
      "name": "ResumeSystem",
      "type": "event"
    },
    {
      "anonymous": false,
      "inputs": [
        {
          "indexed": true,
          "internalType": "address",
          "name": "user",
          "type": "address"
        },
        {
          "indexed": false,
          "internalType": "uint256",
          "name": "epochId",
          "type": "uint256"
        },
        {
          "indexed": false,
          "internalType": "uint256",
          "name": "underlyingIn",
          "type": "uint256"
        },
        {
          "indexed": false,
          "internalType": "uint256",
          "name": "currentQueueBalance",
          "type": "uint256"
        }
      ],
      "name": "SeniorJoinEntryQueue",
      "type": "event"
    },
    {
      "anonymous": false,
      "inputs": [
        {
          "indexed": true,
          "internalType": "address",
          "name": "user",
          "type": "address"
        },
        {
          "indexed": false,
          "internalType": "uint256",
          "name": "epochId",
          "type": "uint256"
        },
        {
          "indexed": false,
          "internalType": "uint256",
          "name": "tokensIn",
          "type": "uint256"
        },
        {
          "indexed": false,
          "internalType": "uint256",
          "name": "currentQueueBalance",
          "type": "uint256"
        }
      ],
      "name": "SeniorJoinExitQueue",
      "type": "event"
    },
    {
      "anonymous": false,
      "inputs": [
        {
          "indexed": true,
          "internalType": "address",
          "name": "user",
          "type": "address"
        },
        {
          "indexed": false,
          "internalType": "uint256",
          "name": "epochId",
          "type": "uint256"
        },
        {
          "indexed": false,
          "internalType": "uint256",
          "name": "tokensOut",
          "type": "uint256"
        }
      ],
      "name": "SeniorRedeemTokens",
      "type": "event"
    },
    {
      "anonymous": false,
      "inputs": [
        {
          "indexed": true,
          "internalType": "address",
          "name": "user",
          "type": "address"
        },
        {
          "indexed": false,
          "internalType": "uint256",
          "name": "epochId",
          "type": "uint256"
        },
        {
          "indexed": false,
          "internalType": "uint256",
          "name": "underlyingOut",
          "type": "uint256"
        }
      ],
      "name": "SeniorRedeemUnderlying",
      "type": "event"
    },
    {
      "anonymous": false,
      "inputs": [
        {
          "indexed": false,
          "internalType": "address",
          "name": "oldModel",
          "type": "address"
        },
        {
          "indexed": false,
          "internalType": "address",
          "name": "newModel",
          "type": "address"
        }
      ],
      "name": "SetAccountingModel",
      "type": "event"
    },
    {
      "anonymous": false,
      "inputs": [
        {
          "indexed": false,
          "internalType": "address",
          "name": "oldOwner",
          "type": "address"
        },
        {
          "indexed": false,
          "internalType": "address",
          "name": "newOwner",
          "type": "address"
        }
      ],
      "name": "SetFeesOwner",
      "type": "event"
    },
    {
      "anonymous": false,
      "inputs": [
        {
          "indexed": false,
          "internalType": "uint256",
          "name": "oldPercentage",
          "type": "uint256"
        },
        {
          "indexed": false,
          "internalType": "uint256",
          "name": "newPercentage",
          "type": "uint256"
        }
      ],
      "name": "SetFeesPercentage",
      "type": "event"
    },
    {
      "anonymous": false,
      "inputs": [
        {
          "indexed": false,
          "internalType": "address",
          "name": "oldOracle",
          "type": "address"
        },
        {
          "indexed": false,
          "internalType": "address",
          "name": "newOracle",
          "type": "address"
        }
      ],
      "name": "SetPriceOracle",
      "type": "event"
    },
    {
      "anonymous": false,
      "inputs": [
        {
          "indexed": false,
          "internalType": "address",
          "name": "oldModel",
          "type": "address"
        },
        {
          "indexed": false,
          "internalType": "address",
          "name": "newModel",
          "type": "address"
        }
      ],
      "name": "SetSeniorRateModel",
      "type": "event"
    },
    {
      "anonymous": false,
      "inputs": [
        {
          "indexed": false,
          "internalType": "address",
          "name": "oldDAO",
          "type": "address"
        },
        {
          "indexed": false,
          "internalType": "address",
          "name": "newDAO",
          "type": "address"
        }
      ],
      "name": "TransferDAO",
      "type": "event"
    },
    {
      "anonymous": false,
      "inputs": [
        {
          "indexed": false,
          "internalType": "address",
          "name": "oldGuardian",
          "type": "address"
        },
        {
          "indexed": false,
          "internalType": "address",
          "name": "newGuardian",
          "type": "address"
        }
      ],
      "name": "TransferGuardian",
      "type": "event"
    },
    {
      "inputs": [],
      "name": "MAX_FEES_PERCENTAGE",
      "outputs": [
        {
          "internalType": "uint256",
          "name": "",
          "type": "uint256"
        }
      ],
      "stateMutability": "view",
      "type": "function"
    },
    {
      "inputs": [],
      "name": "accountingModel",
      "outputs": [
        {
          "internalType": "contract IAccountingModel",
          "name": "",
          "type": "address"
        }
      ],
      "stateMutability": "view",
      "type": "function"
    },
    {
      "inputs": [],
      "name": "advanceEpoch",
      "outputs": [],
      "stateMutability": "nonpayable",
      "type": "function"
    },
    {
      "inputs": [],
      "name": "dao",
      "outputs": [
        {
          "internalType": "address",
          "name": "",
          "type": "address"
        }
      ],
      "stateMutability": "view",
      "type": "function"
    },
    {
      "inputs": [
        {
          "internalType": "uint256",
          "name": "amount",
          "type": "uint256"
        }
      ],
      "name": "depositJunior",
      "outputs": [],
      "stateMutability": "nonpayable",
      "type": "function"
    },
    {
      "inputs": [
        {
          "internalType": "uint256",
          "name": "amount",
          "type": "uint256"
        }
      ],
      "name": "depositSenior",
      "outputs": [],
      "stateMutability": "nonpayable",
      "type": "function"
    },
    {
      "inputs": [],
      "name": "epoch",
      "outputs": [
        {
          "internalType": "uint256",
          "name": "",
          "type": "uint256"
        }
      ],
      "stateMutability": "view",
      "type": "function"
    },
    {
      "inputs": [],
      "name": "epoch1Start",
      "outputs": [
        {
          "internalType": "uint256",
          "name": "",
          "type": "uint256"
        }
      ],
      "stateMutability": "view",
      "type": "function"
    },
    {
      "inputs": [],
      "name": "epochBalance",
      "outputs": [
        {
          "internalType": "uint256",
          "name": "",
          "type": "uint256"
        }
      ],
      "stateMutability": "view",
      "type": "function"
    },
    {
      "inputs": [],
      "name": "epochDownsideProtectionRate",
      "outputs": [
        {
          "internalType": "uint256",
          "name": "",
          "type": "uint256"
        }
      ],
      "stateMutability": "view",
      "type": "function"
    },
    {
      "inputs": [],
      "name": "epochDuration",
      "outputs": [
        {
          "internalType": "uint256",
          "name": "",
          "type": "uint256"
        }
      ],
      "stateMutability": "view",
      "type": "function"
    },
    {
      "inputs": [],
      "name": "epochEntryPrice",
      "outputs": [
        {
          "internalType": "uint256",
          "name": "",
          "type": "uint256"
        }
      ],
      "stateMutability": "view",
      "type": "function"
    },
    {
      "inputs": [],
      "name": "epochJuniorLiquidity",
      "outputs": [
        {
          "internalType": "uint256",
          "name": "",
          "type": "uint256"
        }
      ],
      "stateMutability": "view",
      "type": "function"
    },
    {
      "inputs": [],
      "name": "epochSeniorLiquidity",
      "outputs": [
        {
          "internalType": "uint256",
          "name": "",
          "type": "uint256"
        }
      ],
      "stateMutability": "view",
      "type": "function"
    },
    {
      "inputs": [],
      "name": "epochUpsideExposureRate",
      "outputs": [
        {
          "internalType": "uint256",
          "name": "",
          "type": "uint256"
        }
      ],
      "stateMutability": "view",
      "type": "function"
    },
    {
      "inputs": [],
      "name": "estimateCurrentJuniorLiquidity",
      "outputs": [
        {
          "internalType": "uint256",
          "name": "",
          "type": "uint256"
        }
      ],
      "stateMutability": "view",
      "type": "function"
    },
    {
      "inputs": [],
      "name": "estimateCurrentJuniorTokenPrice",
      "outputs": [
        {
          "internalType": "uint256",
          "name": "",
          "type": "uint256"
        }
      ],
      "stateMutability": "view",
      "type": "function"
    },
    {
      "inputs": [],
      "name": "estimateCurrentSeniorLiquidity",
      "outputs": [
        {
          "internalType": "uint256",
          "name": "",
          "type": "uint256"
        }
      ],
      "stateMutability": "view",
      "type": "function"
    },
    {
      "inputs": [],
      "name": "estimateCurrentSeniorTokenPrice",
      "outputs": [
        {
          "internalType": "uint256",
          "name": "",
          "type": "uint256"
        }
      ],
      "stateMutability": "view",
      "type": "function"
    },
    {
      "inputs": [
        {
          "internalType": "uint256",
          "name": "amountJuniorTokens",
          "type": "uint256"
        }
      ],
      "name": "exitJunior",
      "outputs": [],
      "stateMutability": "nonpayable",
      "type": "function"
    },
    {
      "inputs": [
        {
          "internalType": "uint256",
          "name": "amountSeniorTokens",
          "type": "uint256"
        }
      ],
      "name": "exitSenior",
      "outputs": [],
      "stateMutability": "nonpayable",
      "type": "function"
    },
    {
      "inputs": [],
      "name": "feesAccrued",
      "outputs": [
        {
          "internalType": "uint256",
          "name": "",
          "type": "uint256"
        }
      ],
      "stateMutability": "view",
      "type": "function"
    },
    {
      "inputs": [],
      "name": "feesOwner",
      "outputs": [
        {
          "internalType": "address",
          "name": "",
          "type": "address"
        }
      ],
      "stateMutability": "view",
      "type": "function"
    },
    {
      "inputs": [],
      "name": "feesPercentage",
      "outputs": [
        {
          "internalType": "uint256",
          "name": "",
          "type": "uint256"
        }
      ],
      "stateMutability": "view",
      "type": "function"
    },
    {
      "inputs": [],
      "name": "getCurrentEpoch",
      "outputs": [
        {
          "internalType": "uint256",
          "name": "",
          "type": "uint256"
        }
      ],
      "stateMutability": "view",
      "type": "function"
    },
    {
      "inputs": [],
      "name": "getCurrentJuniorProfits",
      "outputs": [
        {
          "internalType": "uint256",
          "name": "",
          "type": "uint256"
        }
      ],
      "stateMutability": "view",
      "type": "function"
    },
    {
      "inputs": [],
      "name": "getCurrentSeniorProfits",
      "outputs": [
        {
          "internalType": "uint256",
          "name": "",
          "type": "uint256"
        }
      ],
      "stateMutability": "view",
      "type": "function"
    },
    {
      "inputs": [],
      "name": "getEpochJuniorTokenPrice",
      "outputs": [
        {
          "internalType": "uint256",
          "name": "",
          "type": "uint256"
        }
      ],
      "stateMutability": "view",
      "type": "function"
    },
    {
      "inputs": [],
      "name": "getEpochSeniorTokenPrice",
      "outputs": [
        {
          "internalType": "uint256",
          "name": "",
          "type": "uint256"
        }
      ],
      "stateMutability": "view",
      "type": "function"
    },
    {
      "inputs": [],
      "name": "guardian",
      "outputs": [
        {
          "internalType": "address",
          "name": "",
          "type": "address"
        }
      ],
      "stateMutability": "view",
      "type": "function"
    },
    {
      "inputs": [
        {
          "internalType": "uint256",
          "name": "",
          "type": "uint256"
        }
      ],
      "name": "history_epochJuniorTokenPrice",
      "outputs": [
        {
          "internalType": "uint256",
          "name": "",
          "type": "uint256"
        }
      ],
      "stateMutability": "view",
      "type": "function"
    },
    {
      "inputs": [
        {
          "internalType": "uint256",
          "name": "",
          "type": "uint256"
        }
      ],
      "name": "history_epochSeniorTokenPrice",
      "outputs": [
        {
          "internalType": "uint256",
          "name": "",
          "type": "uint256"
        }
      ],
      "stateMutability": "view",
      "type": "function"
    },
    {
      "inputs": [
        {
          "internalType": "address",
          "name": "poolTokenAddr",
          "type": "address"
        },
        {
          "internalType": "address",
          "name": "oracleAddr",
          "type": "address"
        },
        {
          "internalType": "address",
          "name": "seniorRateModelAddr",
          "type": "address"
        },
        {
          "internalType": "address",
          "name": "accountingModelAddr",
          "type": "address"
        },
        {
          "internalType": "address",
          "name": "juniorTokenAddr",
          "type": "address"
        },
        {
          "internalType": "address",
          "name": "seniorTokenAddr",
          "type": "address"
        },
        {
          "internalType": "uint256",
          "name": "_epoch1Start",
          "type": "uint256"
        },
        {
          "internalType": "uint256",
          "name": "_epochDuration",
          "type": "uint256"
        }
      ],
      "name": "initialize",
      "outputs": [],
      "stateMutability": "nonpayable",
      "type": "function"
    },
    {
      "inputs": [],
      "name": "initialized",
      "outputs": [
        {
          "internalType": "bool",
          "name": "",
          "type": "bool"
        }
      ],
      "stateMutability": "view",
      "type": "function"
    },
    {
      "inputs": [
        {
          "internalType": "address",
          "name": "",
          "type": "address"
        }
      ],
      "name": "juniorEntryQueue",
      "outputs": [
        {
          "internalType": "uint256",
          "name": "epoch",
          "type": "uint256"
        },
        {
          "internalType": "uint256",
          "name": "amount",
          "type": "uint256"
        }
      ],
      "stateMutability": "view",
      "type": "function"
    },
    {
      "inputs": [
        {
          "internalType": "address",
          "name": "",
          "type": "address"
        }
      ],
      "name": "juniorExitQueue",
      "outputs": [
        {
          "internalType": "uint256",
          "name": "epoch",
          "type": "uint256"
        },
        {
          "internalType": "uint256",
          "name": "amount",
          "type": "uint256"
        }
      ],
      "stateMutability": "view",
      "type": "function"
    },
    {
      "inputs": [],
      "name": "juniorToken",
      "outputs": [
        {
          "internalType": "contract OwnableERC20",
          "name": "",
          "type": "address"
        }
      ],
      "stateMutability": "view",
      "type": "function"
    },
    {
      "inputs": [],
      "name": "pauseSystem",
      "outputs": [],
      "stateMutability": "nonpayable",
      "type": "function"
    },
    {
      "inputs": [],
      "name": "paused",
      "outputs": [
        {
          "internalType": "bool",
          "name": "",
          "type": "bool"
        }
      ],
      "stateMutability": "view",
      "type": "function"
    },
    {
      "inputs": [],
      "name": "poolToken",
      "outputs": [
        {
          "internalType": "contract IERC20",
          "name": "",
          "type": "address"
        }
      ],
      "stateMutability": "view",
      "type": "function"
    },
    {
      "inputs": [],
      "name": "priceOracle",
      "outputs": [
        {
          "internalType": "contract IPriceOracle",
          "name": "",
          "type": "address"
        }
      ],
      "stateMutability": "view",
      "type": "function"
    },
    {
      "inputs": [],
      "name": "queuedJuniorTokensBurn",
      "outputs": [
        {
          "internalType": "uint256",
          "name": "",
          "type": "uint256"
        }
      ],
      "stateMutability": "view",
      "type": "function"
    },
    {
      "inputs": [],
      "name": "queuedJuniorsUnderlyingIn",
      "outputs": [
        {
          "internalType": "uint256",
          "name": "",
          "type": "uint256"
        }
      ],
      "stateMutability": "view",
      "type": "function"
    },
    {
      "inputs": [],
      "name": "queuedJuniorsUnderlyingOut",
      "outputs": [
        {
          "internalType": "uint256",
          "name": "",
          "type": "uint256"
        }
      ],
      "stateMutability": "view",
      "type": "function"
    },
    {
      "inputs": [],
      "name": "queuedSeniorTokensBurn",
      "outputs": [
        {
          "internalType": "uint256",
          "name": "",
          "type": "uint256"
        }
      ],
      "stateMutability": "view",
      "type": "function"
    },
    {
      "inputs": [],
      "name": "queuedSeniorsUnderlyingIn",
      "outputs": [
        {
          "internalType": "uint256",
          "name": "",
          "type": "uint256"
        }
      ],
      "stateMutability": "view",
      "type": "function"
    },
    {
      "inputs": [],
      "name": "queuedSeniorsUnderlyingOut",
      "outputs": [
        {
          "internalType": "uint256",
          "name": "",
          "type": "uint256"
        }
      ],
      "stateMutability": "view",
      "type": "function"
    },
    {
      "inputs": [],
      "name": "redeemJuniorTokens",
      "outputs": [],
      "stateMutability": "nonpayable",
      "type": "function"
    },
    {
      "inputs": [],
      "name": "redeemJuniorUnderlying",
      "outputs": [],
      "stateMutability": "nonpayable",
      "type": "function"
    },
    {
      "inputs": [],
      "name": "redeemSeniorTokens",
      "outputs": [],
      "stateMutability": "nonpayable",
      "type": "function"
    },
    {
      "inputs": [],
      "name": "redeemSeniorUnderlying",
      "outputs": [],
      "stateMutability": "nonpayable",
      "type": "function"
    },
    {
      "inputs": [],
      "name": "resumeSystem",
      "outputs": [],
      "stateMutability": "nonpayable",
      "type": "function"
    },
    {
      "inputs": [],
      "name": "scaleFactor",
      "outputs": [
        {
          "internalType": "uint256",
          "name": "",
          "type": "uint256"
        }
      ],
      "stateMutability": "view",
      "type": "function"
    },
    {
      "inputs": [
        {
          "internalType": "address",
          "name": "",
          "type": "address"
        }
      ],
      "name": "seniorEntryQueue",
      "outputs": [
        {
          "internalType": "uint256",
          "name": "epoch",
          "type": "uint256"
        },
        {
          "internalType": "uint256",
          "name": "amount",
          "type": "uint256"
        }
      ],
      "stateMutability": "view",
      "type": "function"
    },
    {
      "inputs": [
        {
          "internalType": "address",
          "name": "",
          "type": "address"
        }
      ],
      "name": "seniorExitQueue",
      "outputs": [
        {
          "internalType": "uint256",
          "name": "epoch",
          "type": "uint256"
        },
        {
          "internalType": "uint256",
          "name": "amount",
          "type": "uint256"
        }
      ],
      "stateMutability": "view",
      "type": "function"
    },
    {
      "inputs": [],
      "name": "seniorRateModel",
      "outputs": [
        {
          "internalType": "contract ISeniorRateModel",
          "name": "",
          "type": "address"
        }
      ],
      "stateMutability": "view",
      "type": "function"
    },
    {
      "inputs": [],
      "name": "seniorToken",
      "outputs": [
        {
          "internalType": "contract OwnableERC20",
          "name": "",
          "type": "address"
        }
      ],
      "stateMutability": "view",
      "type": "function"
    },
    {
      "inputs": [
        {
          "internalType": "address",
          "name": "newModel",
          "type": "address"
        }
      ],
      "name": "setAccountingModel",
      "outputs": [],
      "stateMutability": "nonpayable",
      "type": "function"
    },
    {
      "inputs": [
        {
          "internalType": "address",
          "name": "newOwner",
          "type": "address"
        }
      ],
      "name": "setFeesOwner",
      "outputs": [],
      "stateMutability": "nonpayable",
      "type": "function"
    },
    {
      "inputs": [
        {
          "internalType": "uint256",
          "name": "percentage",
          "type": "uint256"
        }
      ],
      "name": "setFeesPercentage",
      "outputs": [],
      "stateMutability": "nonpayable",
      "type": "function"
    },
    {
      "inputs": [
        {
          "internalType": "address",
          "name": "newPriceOracle",
          "type": "address"
        }
      ],
      "name": "setPriceOracle",
      "outputs": [],
      "stateMutability": "nonpayable",
      "type": "function"
    },
    {
      "inputs": [
        {
          "internalType": "address",
          "name": "newModel",
          "type": "address"
        }
      ],
      "name": "setSeniorRateModel",
      "outputs": [],
      "stateMutability": "nonpayable",
      "type": "function"
    },
    {
      "inputs": [
        {
          "internalType": "address",
          "name": "newDAO",
          "type": "address"
        }
      ],
      "name": "transferDAO",
      "outputs": [],
      "stateMutability": "nonpayable",
      "type": "function"
    },
    {
      "inputs": [],
      "name": "transferFees",
      "outputs": [],
      "stateMutability": "nonpayable",
      "type": "function"
    },
    {
      "inputs": [
        {
          "internalType": "address",
          "name": "newGuardian",
          "type": "address"
        }
      ],
      "name": "transferGuardian",
      "outputs": [],
      "stateMutability": "nonpayable",
      "type": "function"
    },
    {
      "inputs": [],
      "name": "underlyingInQueues",
      "outputs": [
        {
          "internalType": "uint256",
          "name": "",
          "type": "uint256"
        }
      ],
      "stateMutability": "view",
      "type": "function"
    }
  ],
  "args": [
    "0xcdCD0ddeE98008287922803D60742f7571A3e8Ce",
    "0x558Ef269Bcc4cc9F2e14E3f4301231fbeb85d95F"
  ],
  "solcInputHash": "db9c5199da5e6f14fdc5cc69d9b2dfeb",
  "bytecode": "0x60806040523480156200001157600080fd5b5060405162003264380380620032648339810160408190526200003491620000e3565b81816001600160a01b038216620000685760405162461bcd60e51b81526004016200005f906200011b565b60405180910390fd5b6001600160a01b038116620000915760405162461bcd60e51b81526004016200005f906200011b565b600080546001600160a01b039384166001600160a01b0319918216179091556001805492909316911617905550620001449050565b80516001600160a01b0381168114620000de57600080fd5b919050565b60008060408385031215620000f757600080fd5b6200010283620000c6565b91506200011260208401620000c6565b90509250929050565b6020808252600f908201526e696e76616c6964206164647265737360881b604082015260600190565b61311080620001546000396000f3fe608060405234801561001057600080fd5b50600436106102f65760003560e01c806301655bb2146102fb578063055ff2721461032e578063077e620b1461033757806307886ac614610341578063091954cd1461034a5780630aeb0d451461035d578063157c51d314610365578063158ef93e1461036d578063194f92611461038a5780631a48c5d2146103925780631ff05aa21461039a578063213ecbba146103ba5780632229f817146103c35780632630c12f146103cc5780633310ae3b146103df5780633cf80e6c146103f25780633dadcd0e146103fa5780634162169f1461040357806341a513c21461041657806343f6949e1461044b578063452a9320146104725780634e43773e146104855780634ff0876a1461049857806351992eed146104a1578063530e784f146104b4578063555f9f0c146104c757806355e1423c146104d05780635b8382f5146104d95780635c975abb146104e15780635d7f81a7146104f55780635de53e791461051c57806365b563321461052557806366eb06fa1461052d578063683dd19114610536578063759be806146105455780637a318866146105585780637ab01705146105365780637e62fc151461056b578063812b06d014610573578063812bbab2146105935780638d97f3cb1461059b578063900cf0cf146105ae57806390db9ab5146105b757806394db0595146105bf5780639ac3d81c146105c7578063a8f3c340146105d0578063adaa8a6c146105d9578063b0e97872146105e2578063b9161287146105f5578063b97dd9e21461061c578063bbcf929914610624578063c2fbe7bc14610637578063c740671f1461063f578063c87f636214610652578063c9cb140514610665578063cb9d6b0d14610678578063cbdf382c14610680578063cfca2fb414610698578063d6ce5458146106a0578063dc1d4fb7146106a8578063de335be4146106b0578063e216ad1c146106c3578063e81619ac146106d6578063f0eff645146106de578063f4a4341d146106f1578063fc6e9cd9146106fa575b600080fd5b61031b610309366004612d66565b60186020526000908152604090205481565b6040519081526020015b60405180910390f35b61031b600f5481565b61033f610702565b005b61031b60145481565b61033f610358366004612c75565b610864565b61031b610929565b61033f6109f4565b60075461037a9060ff1681565b6040519015158152602001610325565b61033f610a77565b61033f610bc2565b6004546103ad906001600160a01b031681565b6040516103259190612dd8565b61031b60065481565b61031b60175481565b6002546103ad906001600160a01b031681565b61033f6103ed366004612d66565b610cbc565b61033f610ea0565b61031b60155481565b6000546103ad906001600160a01b031681565b61043d610424366004612c75565b601a602052600090815260409020805460019091015482565b604051610325929190612fec565b61043d610459366004612c75565b601d602052600090815260409020805460019091015482565b6001546103ad906001600160a01b031681565b61033f610493366004612d66565b61117d565b61031b600b5481565b6003546103ad906001600160a01b031681565b61033f6104c2366004612c75565b611331565b61031b600d5481565b61031b600e5481565b61031b6113d3565b60015461037a90600160a01b900460ff1681565b61043d610503366004612c75565b601c602052600090815260409020805460019091015482565b61031b60135481565b61031b611484565b61031b60125481565b61031b670de0b6b3a764000081565b61033f610553366004612c75565b6115c1565b61033f610566366004612c75565b611658565b61031b61171d565b61031b610581366004612d66565b60196020526000908152604090205481565b61033f6117d3565b61033f6105a9366004612d66565b6118cd565b61031b600c5481565b61031b611a74565b61031b611ae6565b61031b60105481565b61031b60115481565b61031b60165481565b6008546103ad906001600160a01b031681565b61043d610603366004612c75565b601b602052600090815260409020805460019091015482565b61031b611b95565b61033f610632366004612c75565b611bcc565b61033f611c6e565b61033f61064d366004612caf565b611d48565b61033f610660366004612c75565b6120b7565b61033f610673366004612d66565b612159565b61031b612221565b6007546103ad9061010090046001600160a01b031681565b61031b61224d565b61031b6122b8565b61033f6122ca565b61033f6106be366004612d66565b61233a565b6009546103ad906001600160a01b031681565b61031b61251e565b6005546103ad906001600160a01b031681565b61031b600a5481565b61031b6125d2565b61070a610ea0565b336000908152601c60205260409020600c548154106107445760405162461bcd60e51b815260040161073b90612fa0565b60405180910390fd5b6001810154806107665760405162461bcd60e51b815260040161073b90612e76565b60006001830181905582548152601960205260408120549081610791670de0b6b3a76400008561304a565b61079b9190613028565b60095460405163a9059cbb60e01b81529192506001600160a01b03169063a9059cbb906107ce9033908590600401612e2a565b602060405180830381600087803b1580156107e857600080fd5b505af11580156107fc573d6000803e3d6000fd5b505050506040513d601f19601f820116820180604052508101906108209190612d44565b50835460405133917f8b9d5ffabdef5875b86c23ad0939273948c7611ebc419a3c23c8f8532cbe20c89161085691908590612fec565b60405180910390a250505050565b61086c612688565b6001600160a01b0381166108925760405162461bcd60e51b815260040161073b90612f49565b6001546001600160a01b03828116911614156108c05760405162461bcd60e51b815260040161073b90612ea1565b6001546040517f19e3cbfd9b25c12fb88132e5887dc3a2a4f52979bd0af17f78e6fea817addf4b916108ff916001600160a01b03909116908490612dec565b60405180910390a1600180546001600160a01b0319166001600160a01b0392909216919091179055565b600080600960009054906101000a90046001600160a01b03166001600160a01b03166318160ddd6040518163ffffffff1660e01b815260040160206040518083038186803b15801561097a57600080fd5b505afa15801561098e573d6000803e3d6000fd5b505050506040513d601f19601f820116820180604052508101906109b29190612d7f565b9050806109c857670de0b6b3a764000091505090565b80670de0b6b3a76400006109da611a74565b6109e4919061304a565b6109ee9190613028565b91505090565b6109fc612688565b600154600160a01b900460ff16610a3f5760405162461bcd60e51b8152602060048201526007602482015266085c185d5cd95960ca1b604482015260640161073b565b6001805460ff60a01b191690556040517f3008289779e367cc52c347e8bb0a995361494ac17d2ccb8b09a75a77f8c58b9490600090a1565b610a7f610ea0565b336000908152601a60205260409020600c54815410610ab05760405162461bcd60e51b815260040161073b90612fa0565b600181015480610ad25760405162461bcd60e51b815260040161073b90612e76565b60006001830181905582548152601860205260408120549081610afd670de0b6b3a76400008561304a565b610b079190613028565b60085460405163a9059cbb60e01b81529192506001600160a01b03169063a9059cbb90610b3a9033908590600401612e2a565b602060405180830381600087803b158015610b5457600080fd5b505af1158015610b68573d6000803e3d6000fd5b505050506040513d601f19601f82011682018060405250810190610b8c9190612d44565b50835460405133917f822bdec5f81295b087914a2de8160ebad0523c35c96ab4ab599564d86c588ced9161085691908590612fec565b610bca610ea0565b336000908152601b60205260409020600c54815410610bfb5760405162461bcd60e51b815260040161073b90612fa0565b600181015480610c1d5760405162461bcd60e51b815260040161073b90612e76565b600060018301819055825481526018602052604081205490670de0b6b3a7640000610c48838561304a565b610c529190613028565b90508060136000828254610c669190613069565b9091555050600754610c879061010090046001600160a01b031633836126e5565b835460405133917fa362bf831ec0975732381d8a2218cc84161953de04be755d93f9474860f432ee9161085691908590612fec565b610cc4610ea0565b6008546040516370a0823160e01b81526000916001600160a01b0316906370a0823190610cf5903390600401612dd8565b60206040518083038186803b158015610d0d57600080fd5b505afa158015610d21573d6000803e3d6000fd5b505050506040513d601f19601f82011682018060405250810190610d459190612d7f565b905081811015610d675760405162461bcd60e51b815260040161073b90612ee6565b8160146000828254610d799190613010565b9091555050336000908152601b60205260409020600181015415801590610da25750600c548154105b15610daf57610daf610bc2565b600c5481541015610dc057600c5481555b6000838260010154610dd29190613010565b6001830181905560085460405163a0f0bf7f60e01b81529192506001600160a01b03169063a0f0bf7f90610e0e90339030908990600401612e06565b602060405180830381600087803b158015610e2857600080fd5b505af1158015610e3c573d6000803e3d6000fd5b505050506040513d601f19601f82011682018060405250810190610e609190612d44565b50336001600160a01b03167fd634a1ad9b45b7e951a1f30528c0209e937d46d164fd43268090f427349205a3600c54868460405161085693929190612ffa565b6000610eaa611b95565b905080600c5410610eb85750565b6000610ec2611484565b90506000610ece61251e565b90508115610f2c576000670de0b6b3a764000060065484610eef919061304a565b610ef99190613028565b905082600e54610f099190613069565b600e55610f168184613069565b600d54610f239190613010565b600d5550610f84565b8015610f84576000670de0b6b3a764000060065483610f4b919061304a565b610f559190613028565b905081600d54610f659190613069565b600d55610f728183613069565b600e54610f7f9190613010565b600e55505b7faed63947ee74099c60670bac488f65fecd95864d94817d4300ee62fa63afe188600c548284604051610fb993929190612ffa565b60405180910390a1600260009054906101000a90046001600160a01b03166001600160a01b03166398d5fdca6040518163ffffffff1660e01b815260040160206040518083038186803b15801561100f57600080fd5b505afa158015611023573d6000803e3d6000fd5b505050506040513d601f19601f820116820180604052508101906110479190612d7f565b6011556000611054612740565b9050600061106061287a565b905060155481600d546110739190613069565b61107d9190613010565b600d8190555080601660008282546110959190613010565b90915550506000601555601254600e546110b0908490613069565b6110ba9190613010565b600e8190555081601360008282546110d29190613010565b9091555050600060128190556014819055601755600354600e54600d546040516345b05a4360e01b81526001600160a01b03909316926345b05a439261111c929091600401612fec565b604080518083038186803b15801561113357600080fd5b505afa158015611147573d6000803e3d6000fd5b505050506040513d601f19601f8201168201806040525081019061116b9190612d98565b601055600f55505050600c9190915550565b611185612974565b61118d610ea0565b600081116111ad5760405162461bcd60e51b815260040161073b90612f12565b600754604051636eb1769f60e11b8152829161010090046001600160a01b03169063dd62ed3e906111e49033903090600401612dec565b60206040518083038186803b1580156111fc57600080fd5b505afa158015611210573d6000803e3d6000fd5b505050506040513d601f19601f820116820180604052508101906112349190612d7f565b10156112525760405162461bcd60e51b815260040161073b90612f72565b336000908152601c602052604090206001810154158015906112765750600c548154105b1561128357611283610702565b600c548154101561129457600c5481555b81601560008282546112a69190613010565b909155505060018101546000906112be908490613010565b600183018190556007549091506112e59061010090046001600160a01b031633308661299e565b336001600160a01b03167fae031a79e52a4da207e03aac3a3217f2cff9d56d24642655fbf7844a07f0f36a600c54858460405161132493929190612ffa565b60405180910390a2505050565b6113396129c5565b61136a816040518060400160405280600f81526020016e696e76616c6964206164647265737360881b815250612a08565b6002546040517f944f260fa5475db9151efe54fc9fb6df2b40f73533d9483011e94522398cb3c1916113a9916001600160a01b03909116908490612dec565b60405180910390a1600280546001600160a01b0319166001600160a01b0392909216919091179055565b600080600860009054906101000a90046001600160a01b03166001600160a01b03166318160ddd6040518163ffffffff1660e01b815260040160206040518083038186803b15801561142457600080fd5b505afa158015611438573d6000803e3d6000fd5b505050506040513d601f19601f8201168201806040525081019061145c9190612d7f565b90508061147257670de0b6b3a764000091505090565b80670de0b6b3a76400006109da61224d565b600080600260009054906101000a90046001600160a01b03166001600160a01b03166398d5fdca6040518163ffffffff1660e01b815260040160206040518083038186803b1580156114d557600080fd5b505afa1580156114e9573d6000803e3d6000fd5b505050506040513d601f19601f8201168201806040525081019061150d9190612d7f565b600454601154601054600d549394506001600160a01b039092169263aeec2edd9285916115386122b8565b6040516001600160e01b031960e088901b1681526004810195909552602485019390935260448401919091526064830152608482015260a40160206040518083038186803b15801561158957600080fd5b505afa15801561159d573d6000803e3d6000fd5b505050506040513d601f19601f820116820180604052508101906109ee9190612d7f565b6115c96129c5565b6001600160a01b0381166115ef5760405162461bcd60e51b815260040161073b90612f49565b6005546040517f461364f084b7657c2380660ebd35dd6c4560dc78cc6e9795919e53b4e257de839161162e916001600160a01b03909116908490612dec565b60405180910390a1600580546001600160a01b0319166001600160a01b0392909216919091179055565b6116606129c5565b6001600160a01b0381166116865760405162461bcd60e51b815260040161073b90612f49565b6000546001600160a01b03828116911614156116b45760405162461bcd60e51b815260040161073b90612ea1565b6000546040517fe010a6a96c097bdc495fe0aa7b1c1343e8528bd70556da39cd47b0130555c190916116f3916001600160a01b03909116908490612dec565b60405180910390a1600080546001600160a01b0319166001600160a01b0392909216919091179055565b600080600860009054906101000a90046001600160a01b03166001600160a01b03166318160ddd6040518163ffffffff1660e01b815260040160206040518083038186803b15801561176e57600080fd5b505afa158015611782573d6000803e3d6000fd5b505050506040513d601f19601f820116820180604052508101906117a69190612d7f565b9050806117bc57670de0b6b3a764000091505090565b80670de0b6b3a7640000600e546109e4919061304a565b6117db610ea0565b336000908152601d60205260409020600c5481541061180c5760405162461bcd60e51b815260040161073b90612fa0565b60018101548061182e5760405162461bcd60e51b815260040161073b90612e76565b600060018301819055825481526019602052604081205490670de0b6b3a7640000611859838561304a565b6118639190613028565b905080601660008282546118779190613069565b90915550506007546118989061010090046001600160a01b031633836126e5565b835460405133917f014d40541bf53e076bad44aa8bfef33f82c777c0f04196e5582587bad9ee5b369161085691908590612fec565b6118d5612974565b6118dd610ea0565b600081116118fd5760405162461bcd60e51b815260040161073b90612f12565b600754604051636eb1769f60e11b8152829161010090046001600160a01b03169063dd62ed3e906119349033903090600401612dec565b60206040518083038186803b15801561194c57600080fd5b505afa158015611960573d6000803e3d6000fd5b505050506040513d601f19601f820116820180604052508101906119849190612d7f565b10156119a25760405162461bcd60e51b815260040161073b90612f72565b336000908152601a602052604090206001810154158015906119c65750600c548154105b156119d3576119d3610a77565b600c54815410156119e457600c5481555b81601260008282546119f69190613010565b90915550506001810154600090611a0e908490613010565b60018301819055600754909150611a359061010090046001600160a01b031633308661299e565b336001600160a01b03167f81b0ac0867278845eee541a0351e48acc52b65ba1a469e840ad5a4f8a8650a2e600c54858460405161132493929190612ffa565b600080611a7f611484565b90508015611aba576000670de0b6b3a764000060065483611aa0919061304a565b611aaa9190613028565b9050611ab68183613069565b9150505b6000611ac461251e565b90508082600d54611ad59190613010565b611adf9190613069565b9250505090565b6000611af0612221565b611af86122b8565b6007546040516370a0823160e01b81526101009091046001600160a01b0316906370a0823190611b2c903090600401612dd8565b60206040518083038186803b158015611b4457600080fd5b505afa158015611b58573d6000803e3d6000fd5b505050506040513d601f19601f82011682018060405250810190611b7c9190612d7f565b611b869190613069565b611b909190613069565b905090565b6000600a54421015611ba75750600090565b600b54600a54611bb79042613069565b611bc19190613028565b611b90906001613010565b611bd46129c5565b611c05816040518060400160405280600f81526020016e696e76616c6964206164647265737360881b815250612a08565b6003546040517ffbbe86207337f27b9ba95decb76b63122f31b20555b8b3737055683611443aac91611c44916001600160a01b03909116908490612dec565b60405180910390a1600380546001600160a01b0319166001600160a01b0392909216919091179055565b6000611c78611ae6565b905060008111611cb45760405162461bcd60e51b81526020600482015260076024820152666e6f206665657360c81b604482015260640161073b565b6005546001600160a01b0316611cdc5760405162461bcd60e51b815260040161073b90612ebf565b600554600754611cfe916001600160a01b0361010090920482169116836126e5565b6005546040517f6d86532cebce232743f74710d18164bfb38cbebf1ca203cb83382b9cf54cd9ac91611d3d9133916001600160a01b0316908590612e06565b60405180910390a150565b60075460ff1615611d9a5760405162461bcd60e51b815260206004820152601c60248201527b18dbdb9d1c9858dd08185b1c9958591e481a5b9a5d1a585b1a5e995960221b604482015260640161073b565b6007805460ff19166001179055611daf6129c5565b611db887611331565b611dc186611bcc565b611dca856120b7565b6001600160a01b038816611e1a5760405162461bcd60e51b81526020600482015260176024820152760706f6f6c20746f6b656e2063616e27742062652030783604c1b604482015260640161073b565b6001600160a01b038416611e6c5760405162461bcd60e51b815260206004820152601960248201527806a756e696f7220746f6b656e2063616e27742062652030783603c1b604482015260640161073b565b6001600160a01b038316611ebe5760405162461bcd60e51b8152602060048201526019602482015278073656e696f7220746f6b656e2063616e27742062652030783603c1b604482015260640161073b565b600780546001600160a01b03808b1661010002610100600160a81b031990921691909117909155600880549186166001600160a01b03199092168217905560408051638da5cb5b60e01b81529051309291638da5cb5b916004808301926020929190829003018186803b158015611f3457600080fd5b505afa158015611f48573d6000803e3d6000fd5b505050506040513d601f19601f82011682018060405250810190611f6c9190612c92565b6001600160a01b031614611fc25760405162461bcd60e51b815260206004820152601d60248201527f6a756e696f7220746f6b656e206f776e6572206d757374206265205341000000604482015260640161073b565b600980546001600160a01b0319166001600160a01b03851690811790915560408051638da5cb5b60e01b81529051309291638da5cb5b916004808301926020929190829003018186803b15801561201857600080fd5b505afa15801561202c573d6000803e3d6000fd5b505050506040513d601f19601f820116820180604052508101906120509190612c92565b6001600160a01b0316146120a65760405162461bcd60e51b815260206004820152601d60248201527f73656e696f7220746f6b656e206f776e6572206d757374206265205341000000604482015260640161073b565b600a91909155600b55505050505050565b6120bf6129c5565b6120f0816040518060400160405280600f81526020016e696e76616c6964206164647265737360881b815250612a08565b6004546040517ffd041dbbf45fb8b18dc79ae79199a37ddc52c7559ac44fdd5fefb9aa9c2028439161212f916001600160a01b03909116908490612dec565b60405180910390a1600480546001600160a01b0319166001600160a01b0392909216919091179055565b6121616129c5565b801561218f576005546001600160a01b031661218f5760405162461bcd60e51b815260040161073b90612ebf565b670de0b6b3a76400008111156121e15760405162461bcd60e51b81526020600482015260176024820152761b585e081c195c98d95b9d1859d948195e18d959591959604a1b604482015260640161073b565b7fe5bd021bb3e7a336d89185c09eb4286717c23a651140650eeda4d774812cde1260065482604051612214929190612fec565b60405180910390a1600655565b60006016546013546015546012546122399190613010565b6122439190613010565b611b909190613010565b600080612258611484565b9050600061226461251e565b9050801561229f576000670de0b6b3a764000060065483612285919061304a565b61228f9190613028565b905061229b8183613069565b9150505b8082600e546122ae9190613069565b611adf9190613010565b6000600d54600e54611b909190613010565b6122d2612688565b600154600160a01b900460ff16156122fc5760405162461bcd60e51b815260040161073b90612fcc565b6001805460ff60a01b1916600160a01b1790556040517fee68d332edc397b95695f3d00eb879007ec02eb6733fe32e305cc12d406d03c190600090a1565b612342610ea0565b6009546040516370a0823160e01b81526000916001600160a01b0316906370a0823190612373903390600401612dd8565b60206040518083038186803b15801561238b57600080fd5b505afa15801561239f573d6000803e3d6000fd5b505050506040513d601f19601f820116820180604052508101906123c39190612d7f565b9050818110156123e55760405162461bcd60e51b815260040161073b90612ee6565b81601760008282546123f79190613010565b9091555050336000908152601d602052604090206001810154158015906124205750600c548154105b1561242d5761242d6117d3565b600c548154101561243e57600c5481555b60008382600101546124509190613010565b6001830181905560095460405163a0f0bf7f60e01b81529192506001600160a01b03169063a0f0bf7f9061248c90339030908990600401612e06565b602060405180830381600087803b1580156124a657600080fd5b505af11580156124ba573d6000803e3d6000fd5b505050506040513d601f19601f820116820180604052508101906124de9190612d44565b50336001600160a01b03167f8fe0fbd18893ea6a3597f5ccec3e4494f92cc4cea7276a9a868c6a9bd1504e61600c54868460405161085693929190612ffa565b600080600260009054906101000a90046001600160a01b03166001600160a01b03166398d5fdca6040518163ffffffff1660e01b815260040160206040518083038186803b15801561256f57600080fd5b505afa158015612583573d6000803e3d6000fd5b505050506040513d601f19601f820116820180604052508101906125a79190612d7f565b600454601154600f54600d549394506001600160a01b039092169263cd91b1899285916115386122b8565b600080600960009054906101000a90046001600160a01b03166001600160a01b03166318160ddd6040518163ffffffff1660e01b815260040160206040518083038186803b15801561262357600080fd5b505afa158015612637573d6000803e3d6000fd5b505050506040513d601f19601f8201168201806040525081019061265b9190612d7f565b90508061267157670de0b6b3a764000091505090565b80670de0b6b3a7640000600d546109e4919061304a565b6001546001600160a01b03163314806126ab57506000546001600160a01b031633145b6126e35760405162461bcd60e51b815260206004820152600960248201526810b3bab0b93234b0b760b91b604482015260640161073b565b565b61273b8363a9059cbb60e01b8484604051602401612704929190612e2a565b60408051601f198184030181529190526020810180516001600160e01b03166001600160e01b031990931692909217909152612a29565b505050565b60008061274b61171d565b600c54600090815260186020526040812082905560125491925090829061277b90670de0b6b3a76400009061304a565b6127859190613028565b6014549091506000670de0b6b3a76400006127a0858461304a565b6127aa9190613028565b90508183111561282b5760006127c08385613069565b6008546040516340c10f1960e01b81529192506001600160a01b0316906340c10f19906127f39030908590600401612e2a565b600060405180830381600087803b15801561280d57600080fd5b505af1158015612821573d6000803e3d6000fd5b5050505050612872565b8282111561287257600061283f8484613069565b600854604051632770a7eb60e21b81529192506001600160a01b031690639dc29fac906127f39030908590600401612e2a565b949350505050565b6000806128856125d2565b600c5460009081526019602052604081208290556015549192509082906128b590670de0b6b3a76400009061304a565b6128bf9190613028565b6017549091506000670de0b6b3a76400006128da858461304a565b6128e49190613028565b90508183111561292d5760006128fa8385613069565b6009546040516340c10f1960e01b81529192506001600160a01b0316906340c10f19906127f39030908590600401612e2a565b828211156128725760006129418484613069565b600954604051632770a7eb60e21b81529192506001600160a01b031690639dc29fac906127f39030908590600401612e2a565b600154600160a01b900460ff16156126e35760405162461bcd60e51b815260040161073b90612fcc565b6129bf846323b872dd60e01b85858560405160240161270493929190612e06565b50505050565b6000546001600160a01b031633146126e35760405162461bcd60e51b815260040161073b906020808252600490820152632164616f60e01b604082015260600190565b813b81816129bf5760405162461bcd60e51b815260040161073b9190612e43565b6000612a7e826040518060400160405280602081526020017f5361666545524332303a206c6f772d6c6576656c2063616c6c206661696c6564815250856001600160a01b0316612afb9092919063ffffffff16565b80519091501561273b5780806020019051810190612a9c9190612d44565b61273b5760405162461bcd60e51b815260206004820152602a60248201527f5361666545524332303a204552433230206f7065726174696f6e20646964206e6044820152691bdd081cdd58d8d9595960b21b606482015260840161073b565b6060612b0a8484600085612b14565b90505b9392505050565b606082471015612b755760405162461bcd60e51b815260206004820152602660248201527f416464726573733a20696e73756666696369656e742062616c616e636520666f6044820152651c8818d85b1b60d21b606482015260840161073b565b843b612bc35760405162461bcd60e51b815260206004820152601d60248201527f416464726573733a2063616c6c20746f206e6f6e2d636f6e7472616374000000604482015260640161073b565b600080866001600160a01b03168587604051612bdf9190612dbc565b60006040518083038185875af1925050503d8060008114612c1c576040519150601f19603f3d011682016040523d82523d6000602084013e612c21565b606091505b5091509150612c31828286612c3c565b979650505050505050565b60608315612c4b575081612b0d565b825115612c5b5782518084602001fd5b8160405162461bcd60e51b815260040161073b9190612e43565b600060208284031215612c8757600080fd5b8135612b0d816130c2565b600060208284031215612ca457600080fd5b8151612b0d816130c2565b600080600080600080600080610100898b031215612ccc57600080fd5b8835612cd7816130c2565b97506020890135612ce7816130c2565b96506040890135612cf7816130c2565b95506060890135612d07816130c2565b94506080890135612d17816130c2565b935060a0890135612d27816130c2565b979a969950949793969295929450505060c08201359160e0013590565b600060208284031215612d5657600080fd5b81518015158114612b0d57600080fd5b600060208284031215612d7857600080fd5b5035919050565b600060208284031215612d9157600080fd5b5051919050565b60008060408385031215612dab57600080fd5b505080516020909101519092909150565b60008251612dce818460208701613080565b9190910192915050565b6001600160a01b0391909116815260200190565b6001600160a01b0392831681529116602082015260400190565b6001600160a01b039384168152919092166020820152604081019190915260600190565b6001600160a01b03929092168252602082015260400190565b6020815260008251806020840152612e62816040850160208701613080565b601f01601f19169190910160400192915050565b6020808252601190820152706e6f7468696e6720746f2072656465656d60781b604082015260600190565b602080825260049082015263216e657760e01b604082015260600190565b6020808252600d908201526c3737903332b2b99037bbb732b960991b604082015260600190565b6020808252601290820152716e6f7420656e6f7567682062616c616e636560701b604082015260600190565b6020808252601d908201527f616d6f756e74206d7573742062652067726561746572207468616e2030000000604082015260600190565b6020808252600f908201526e696e76616c6964206164647265737360881b604082015260600190565b6020808252601490820152736e6f7420656e6f75676820616c6c6f77616e636560601b604082015260600190565b6020808252601290820152711b9bdd081c995919595b58589b19481e595d60721b604082015260600190565b6020808252600690820152651c185d5cd95960d21b604082015260600190565b918252602082015260400190565b9283526020830191909152604082015260600190565b60008219821115613023576130236130ac565b500190565b60008261304557634e487b7160e01b600052601260045260246000fd5b500490565b6000816000190483118215151615613064576130646130ac565b500290565b60008282101561307b5761307b6130ac565b500390565b60005b8381101561309b578181015183820152602001613083565b838111156129bf5750506000910152565b634e487b7160e01b600052601160045260246000fd5b6001600160a01b03811681146130d757600080fd5b5056fea26469706673582212208e1bc10bc2e6b23d55ab9baefa4caa6c44eb9a3627faac83c544d72931f0391064736f6c63430008060033"
}