{
  "address": "0xAeeF681Ce023E7a157AaBbc88C5a6922aa7F2A31",
  "abi": [
    {
      "inputs": [
        {
          "internalType": "uint256",
          "name": "entryPrice",
          "type": "uint256"
        },
        {
          "internalType": "uint256",
          "name": "currentPrice",
          "type": "uint256"
        },
        {
          "internalType": "uint256",
          "name": "upsideExposureRate",
          "type": "uint256"
        },
        {
          "internalType": "uint256",
          "name": "totalSeniors",
          "type": "uint256"
        },
        {
          "internalType": "uint256",
          "name": "",
          "type": "uint256"
        }
      ],
      "name": "calcJuniorProfits",
      "outputs": [
        {
          "internalType": "uint256",
          "name": "",
          "type": "uint256"
        }
      ],
      "stateMutability": "pure",
      "type": "function"
    },
    {
      "inputs": [
        {
          "internalType": "uint256",
          "name": "entryPrice",
          "type": "uint256"
        },
        {
          "internalType": "uint256",
          "name": "currentPrice",
          "type": "uint256"
        },
        {
          "internalType": "uint256",
          "name": "downsideProtectionRate",
          "type": "uint256"
        },
        {
          "internalType": "uint256",
          "name": "totalSeniors",
          "type": "uint256"
        },
        {
          "internalType": "uint256",
          "name": "",
          "type": "uint256"
        }
      ],
      "name": "calcSeniorProfits",
      "outputs": [
        {
          "internalType": "uint256",
          "name": "",
          "type": "uint256"
        }
      ],
      "stateMutability": "pure",
      "type": "function"
    },
    {
      "inputs": [],
      "name": "scaleFactor",
      "outputs": [
        {
          "internalType": "uint256",
          "name": "",
          "type": "uint256"
        }
      ],
      "stateMutability": "view",
      "type": "function"
    }
  ],
  "args": [],
  "solcInputHash": "db9c5199da5e6f14fdc5cc69d9b2dfeb",
  "bytecode": "0x608060405234801561001057600080fd5b5061027e806100206000396000f3fe608060405234801561001057600080fd5b50600436106100415760003560e01c8063683dd19114610046578063aeec2edd14610067578063cd91b1891461007a575b600080fd5b610055670de0b6b3a764000081565b60405190815260200160405180910390f35b610055610075366004610187565b61008d565b610055610088366004610187565b61011f565b600084861161009e57506000610116565b6000670de0b6b3a76400006100b3868261021b565b6100bd90896101fc565b6100c791906101da565b6100d29060016101c2565b90508087116100e5576000915050610116565b85818110156100f15750805b84816100fd8a836101fc565b61010791906101da565b610111919061021b565b925050505b95945050505050565b600085851161013057506000610116565b600061013c878761021b565b9050600061015286670de0b6b3a764000061021b565b9050670de0b6b3a7640000878661016984866101fc565b61017391906101fc565b61017d91906101da565b61011191906101da565b600080600080600060a0868803121561019f57600080fd5b505083359560208501359550604085013594606081013594506080013592509050565b600082198211156101d5576101d5610232565b500190565b6000826101f757634e487b7160e01b600052601260045260246000fd5b500490565b600081600019048311821515161561021657610216610232565b500290565b60008282101561022d5761022d610232565b500390565b634e487b7160e01b600052601160045260246000fdfea26469706673582212203707b7578c73335284dcb613c44e09da139107ca97495650dfee58bb6f8c422964736f6c63430008060033"
}