{
  "address": "0x63F0c994938c700A477a1f3C5b7B6762a2Da4Ed2",
  "abi": [
    {
      "inputs": [
        {
          "internalType": "address",
          "name": "oracleAddr",
          "type": "address"
        }
      ],
      "stateMutability": "nonpayable",
      "type": "constructor"
    },
    {
      "inputs": [],
      "name": "getPrice",
      "outputs": [
        {
          "internalType": "uint256",
          "name": "",
          "type": "uint256"
        }
      ],
      "stateMutability": "view",
      "type": "function"
    },
    {
      "inputs": [],
      "name": "oracle",
      "outputs": [
        {
          "internalType": "contract AggregatorV3Interface",
          "name": "",
          "type": "address"
        }
      ],
      "stateMutability": "view",
      "type": "function"
    }
  ],
  "args": [
    "0xD702DD976Fb76Fffc2D3963D037dfDae5b04E593"
  ],
  "solcInputHash": "db9c5199da5e6f14fdc5cc69d9b2dfeb",
  "bytecode": "0x608060405234801561001057600080fd5b5060405161029838038061029883398101604081905261002f916100ae565b6001600160a01b0381166100895760405162461bcd60e51b815260206004820152601460248201527f6f7261636c652063616e6e6f7420626520307830000000000000000000000000604482015260640160405180910390fd5b600080546001600160a01b0319166001600160a01b03929092169190911790556100de565b6000602082840312156100c057600080fd5b81516001600160a01b03811681146100d757600080fd5b9392505050565b6101ab806100ed6000396000f3fe608060405234801561001057600080fd5b50600436106100365760003560e01c80637dc0d1d01461003b57806398d5fdca1461006b575b600080fd5b60005461004e906001600160a01b031681565b6040516001600160a01b0390911681526020015b60405180910390f35b610073610081565b604051908152602001610062565b6000805460408051633fabe5a360e21b8152905183926001600160a01b03169163feaf968c9160048083019260a0929190829003018186803b1580156100c657600080fd5b505afa1580156100da573d6000803e3d6000fd5b505050506040513d601f19601f820116820180604052508101906100fe9190610125565b509195945050505050565b80516001600160501b038116811461012057600080fd5b919050565b600080600080600060a0868803121561013d57600080fd5b61014686610109565b945060208601519350604086015192506060860151915061016960808701610109565b9050929550929590935056fea2646970667358221220ef2e0417707fb2fc3351e5943b5d81fa879c80d3ed8fb18f0fb980724b8cb14a64736f6c63430008060033"
}