{
  "address": "0x1de0cc24e11b70Ba7ECb988402454f98035d3660",
  "abi": [
    {
      "inputs": [
        {
          "internalType": "string",
          "name": "name",
          "type": "string"
        },
        {
          "internalType": "string",
          "name": "symbol",
          "type": "string"
        },
        {
          "internalType": "uint8",
          "name": "_decimals",
          "type": "uint8"
        }
      ],
      "stateMutability": "nonpayable",
      "type": "constructor"
    },
    {
      "anonymous": false,
      "inputs": [
        {
          "indexed": true,
          "internalType": "address",
          "name": "owner",
          "type": "address"
        },
        {
          "indexed": true,
          "internalType": "address",
          "name": "spender",
          "type": "address"
        },
        {
          "indexed": false,
          "internalType": "uint256",
          "name": "value",
          "type": "uint256"
        }
      ],
      "name": "Approval",
      "type": "event"
    },
    {
      "anonymous": false,
      "inputs": [
        {
          "indexed": true,
          "internalType": "address",
          "name": "previousOwner",
          "type": "address"
        },
        {
          "indexed": true,
          "internalType": "address",
          "name": "newOwner",
          "type": "address"
        }
      ],
      "name": "OwnershipTransferred",
      "type": "event"
    },
    {
      "anonymous": false,
      "inputs": [
        {
          "indexed": true,
          "internalType": "address",
          "name": "from",
          "type": "address"
        },
        {
          "indexed": true,
          "internalType": "address",
          "name": "to",
          "type": "address"
        },
        {
          "indexed": false,
          "internalType": "uint256",
          "name": "value",
          "type": "uint256"
        }
      ],
      "name": "Transfer",
      "type": "event"
    },
    {
      "inputs": [
        {
          "internalType": "address",
          "name": "owner",
          "type": "address"
        },
        {
          "internalType": "address",
          "name": "spender",
          "type": "address"
        }
      ],
      "name": "allowance",
      "outputs": [
        {
          "internalType": "uint256",
          "name": "",
          "type": "uint256"
        }
      ],
      "stateMutability": "view",
      "type": "function"
    },
    {
      "inputs": [
        {
          "internalType": "address",
          "name": "spender",
          "type": "address"
        },
        {
          "internalType": "uint256",
          "name": "amount",
          "type": "uint256"
        }
      ],
      "name": "approve",
      "outputs": [
        {
          "internalType": "bool",
          "name": "",
          "type": "bool"
        }
      ],
      "stateMutability": "nonpayable",
      "type": "function"
    },
    {
      "inputs": [
        {
          "internalType": "address",
          "name": "account",
          "type": "address"
        }
      ],
      "name": "balanceOf",
      "outputs": [
        {
          "internalType": "uint256",
          "name": "",
          "type": "uint256"
        }
      ],
      "stateMutability": "view",
      "type": "function"
    },
    {
      "inputs": [
        {
          "internalType": "address",
          "name": "user",
          "type": "address"
        },
        {
          "internalType": "uint256",
          "name": "amount",
          "type": "uint256"
        }
      ],
      "name": "burn",
      "outputs": [],
      "stateMutability": "nonpayable",
      "type": "function"
    },
    {
      "inputs": [],
      "name": "decimals",
      "outputs": [
        {
          "internalType": "uint8",
          "name": "",
          "type": "uint8"
        }
      ],
      "stateMutability": "view",
      "type": "function"
    },
    {
      "inputs": [
        {
          "internalType": "address",
          "name": "spender",
          "type": "address"
        },
        {
          "internalType": "uint256",
          "name": "subtractedValue",
          "type": "uint256"
        }
      ],
      "name": "decreaseAllowance",
      "outputs": [
        {
          "internalType": "bool",
          "name": "",
          "type": "bool"
        }
      ],
      "stateMutability": "nonpayable",
      "type": "function"
    },
    {
      "inputs": [
        {
          "internalType": "address",
          "name": "spender",
          "type": "address"
        },
        {
          "internalType": "uint256",
          "name": "addedValue",
          "type": "uint256"
        }
      ],
      "name": "increaseAllowance",
      "outputs": [
        {
          "internalType": "bool",
          "name": "",
          "type": "bool"
        }
      ],
      "stateMutability": "nonpayable",
      "type": "function"
    },
    {
      "inputs": [
        {
          "internalType": "address",
          "name": "user",
          "type": "address"
        },
        {
          "internalType": "uint256",
          "name": "amount",
          "type": "uint256"
        }
      ],
      "name": "mint",
      "outputs": [],
      "stateMutability": "nonpayable",
      "type": "function"
    },
    {
      "inputs": [],
      "name": "name",
      "outputs": [
        {
          "internalType": "string",
          "name": "",
          "type": "string"
        }
      ],
      "stateMutability": "view",
      "type": "function"
    },
    {
      "inputs": [],
      "name": "owner",
      "outputs": [
        {
          "internalType": "address",
          "name": "",
          "type": "address"
        }
      ],
      "stateMutability": "view",
      "type": "function"
    },
    {
      "inputs": [],
      "name": "renounceOwnership",
      "outputs": [],
      "stateMutability": "nonpayable",
      "type": "function"
    },
    {
      "inputs": [],
      "name": "symbol",
      "outputs": [
        {
          "internalType": "string",
          "name": "",
          "type": "string"
        }
      ],
      "stateMutability": "view",
      "type": "function"
    },
    {
      "inputs": [],
      "name": "totalSupply",
      "outputs": [
        {
          "internalType": "uint256",
          "name": "",
          "type": "uint256"
        }
      ],
      "stateMutability": "view",
      "type": "function"
    },
    {
      "inputs": [
        {
          "internalType": "address",
          "name": "recipient",
          "type": "address"
        },
        {
          "internalType": "uint256",
          "name": "amount",
          "type": "uint256"
        }
      ],
      "name": "transfer",
      "outputs": [
        {
          "internalType": "bool",
          "name": "",
          "type": "bool"
        }
      ],
      "stateMutability": "nonpayable",
      "type": "function"
    },
    {
      "inputs": [
        {
          "internalType": "address",
          "name": "sender",
          "type": "address"
        },
        {
          "internalType": "address",
          "name": "recipient",
          "type": "address"
        },
        {
          "internalType": "uint256",
          "name": "amount",
          "type": "uint256"
        }
      ],
      "name": "transferAsOwner",
      "outputs": [
        {
          "internalType": "bool",
          "name": "",
          "type": "bool"
        }
      ],
      "stateMutability": "nonpayable",
      "type": "function"
    },
    {
      "inputs": [
        {
          "internalType": "address",
          "name": "sender",
          "type": "address"
        },
        {
          "internalType": "address",
          "name": "recipient",
          "type": "address"
        },
        {
          "internalType": "uint256",
          "name": "amount",
          "type": "uint256"
        }
      ],
      "name": "transferFrom",
      "outputs": [
        {
          "internalType": "bool",
          "name": "",
          "type": "bool"
        }
      ],
      "stateMutability": "nonpayable",
      "type": "function"
    },
    {
      "inputs": [
        {
          "internalType": "address",
          "name": "newOwner",
          "type": "address"
        }
      ],
      "name": "transferOwnership",
      "outputs": [],
      "stateMutability": "nonpayable",
      "type": "function"
    }
  ],
  "args": [
    "BarnBridge WBTC-USD-1w senior token",
    "senior_WBTC-USD-1w",
    8
  ],
  "solcInputHash": "db9c5199da5e6f14fdc5cc69d9b2dfeb",
  "bytecode": "0x60806040523480156200001157600080fd5b50604051620011103803806200111083398101604081905262000034916200025a565b8251839083906200004d906003906020850190620000fd565b50805162000063906004906020840190620000fd565b505050620000806200007a620000a760201b60201c565b620000ab565b6005805460ff909216600160a01b0260ff60a01b1990921691909117905550620003329050565b3390565b600580546001600160a01b038381166001600160a01b0319831681179093556040519116919082907f8be0079c531659141344cd1fd0a4f28419497f9722a3daafe3b4186f6b6457e090600090a35050565b8280546200010b90620002df565b90600052602060002090601f0160209004810192826200012f57600085556200017a565b82601f106200014a57805160ff19168380011785556200017a565b828001600101855582156200017a579182015b828111156200017a5782518255916020019190600101906200015d565b50620001889291506200018c565b5090565b5b808211156200018857600081556001016200018d565b600082601f830112620001b557600080fd5b81516001600160401b0380821115620001d257620001d26200031c565b604051601f8301601f19908116603f01168101908282118183101715620001fd57620001fd6200031c565b816040528381526020925086838588010111156200021a57600080fd5b600091505b838210156200023e57858201830151818301840152908201906200021f565b83821115620002505760008385830101525b9695505050505050565b6000806000606084860312156200027057600080fd5b83516001600160401b03808211156200028857600080fd5b6200029687838801620001a3565b94506020860151915080821115620002ad57600080fd5b50620002bc86828701620001a3565b925050604084015160ff81168114620002d457600080fd5b809150509250925092565b600181811c90821680620002f457607f821691505b602082108114156200031657634e487b7160e01b600052602260045260246000fd5b50919050565b634e487b7160e01b600052604160045260246000fd5b610dce80620003426000396000f3fe608060405234801561001057600080fd5b50600436106100db5760003560e01c806306fdde03146100e0578063095ea7b3146100fe57806318160ddd1461012157806323b872dd14610133578063313ce56714610146578063395093511461016557806340c10f191461017857806370a082311461018d578063715018a6146101b65780638da5cb5b146101be57806395d89b41146101de5780639dc29fac146101e6578063a0f0bf7f146101f9578063a457c2d71461020c578063a9059cbb1461021f578063dd62ed3e14610232578063f2fde38b1461026b575b600080fd5b6100e861027e565b6040516100f59190610c6e565b60405180910390f35b61011161010c366004610c44565b610310565b60405190151581526020016100f5565b6002545b6040519081526020016100f5565b610111610141366004610c08565b610326565b600554600160a01b900460ff1660405160ff90911681526020016100f5565b610111610173366004610c44565b6103d5565b61018b610186366004610c44565b610411565b005b61012561019b366004610bb3565b6001600160a01b031660009081526020819052604090205490565b61018b61044e565b6101c6610489565b6040516001600160a01b0390911681526020016100f5565b6100e8610498565b61018b6101f4366004610c44565b6104a7565b610111610207366004610c08565b6104e0565b61011161021a366004610c44565b610526565b61011161022d366004610c44565b6105b5565b610125610240366004610bd5565b6001600160a01b03918216600090815260016020908152604080832093909416825291909152205490565b61018b610279366004610bb3565b6105c2565b60606003805461028d90610d27565b80601f01602080910402602001604051908101604052809291908181526020018280546102b990610d27565b80156103065780601f106102db57610100808354040283529160200191610306565b820191906000526020600020905b8154815290600101906020018083116102e957829003601f168201915b5050505050905090565b600061031d338484610662565b50600192915050565b6000610333848484610787565b6001600160a01b0384166000908152600160209081526040808320338452909152902054828110156103bd5760405162461bcd60e51b815260206004820152602860248201527f45524332303a207472616e7366657220616d6f756e74206578636565647320616044820152676c6c6f77616e636560c01b60648201526084015b60405180910390fd5b6103ca8533858403610662565b506001949350505050565b3360008181526001602090815260408083206001600160a01b0387168452909152812054909161031d91859061040c908690610cf8565b610662565b3361041a610489565b6001600160a01b0316146104405760405162461bcd60e51b81526004016103b490610cc3565b61044a8282610944565b5050565b33610457610489565b6001600160a01b03161461047d5760405162461bcd60e51b81526004016103b490610cc3565b6104876000610a11565b565b6005546001600160a01b031690565b60606004805461028d90610d27565b336104b0610489565b6001600160a01b0316146104d65760405162461bcd60e51b81526004016103b490610cc3565b61044a8282610a63565b6000336104eb610489565b6001600160a01b0316146105115760405162461bcd60e51b81526004016103b490610cc3565b61051c848484610787565b5060019392505050565b3360009081526001602090815260408083206001600160a01b0386168452909152812054828110156105a85760405162461bcd60e51b815260206004820152602560248201527f45524332303a2064656372656173656420616c6c6f77616e63652062656c6f77604482015264207a65726f60d81b60648201526084016103b4565b61051c3385858403610662565b600061031d338484610787565b336105cb610489565b6001600160a01b0316146105f15760405162461bcd60e51b81526004016103b490610cc3565b6001600160a01b0381166106565760405162461bcd60e51b815260206004820152602660248201527f4f776e61626c653a206e6577206f776e657220697320746865207a65726f206160448201526564647265737360d01b60648201526084016103b4565b61065f81610a11565b50565b6001600160a01b0383166106c45760405162461bcd60e51b8152602060048201526024808201527f45524332303a20617070726f76652066726f6d20746865207a65726f206164646044820152637265737360e01b60648201526084016103b4565b6001600160a01b0382166107255760405162461bcd60e51b815260206004820152602260248201527f45524332303a20617070726f766520746f20746865207a65726f206164647265604482015261737360f01b60648201526084016103b4565b6001600160a01b0383811660008181526001602090815260408083209487168084529482529182902085905590518481527f8c5be1e5ebec7d5bd14f71427d1e84f3dd0314c0f7b2291e5b200ac8c7c3b92591015b60405180910390a3505050565b6001600160a01b0383166107eb5760405162461bcd60e51b815260206004820152602560248201527f45524332303a207472616e736665722066726f6d20746865207a65726f206164604482015264647265737360d81b60648201526084016103b4565b6001600160a01b03821661084d5760405162461bcd60e51b815260206004820152602360248201527f45524332303a207472616e7366657220746f20746865207a65726f206164647260448201526265737360e81b60648201526084016103b4565b6001600160a01b038316600090815260208190526040902054818110156108c55760405162461bcd60e51b815260206004820152602660248201527f45524332303a207472616e7366657220616d6f756e7420657863656564732062604482015265616c616e636560d01b60648201526084016103b4565b6001600160a01b038085166000908152602081905260408082208585039055918516815290812080548492906108fc908490610cf8565b92505081905550826001600160a01b0316846001600160a01b0316600080516020610d798339815191528460405161093691815260200190565b60405180910390a350505050565b6001600160a01b03821661099a5760405162461bcd60e51b815260206004820152601f60248201527f45524332303a206d696e7420746f20746865207a65726f20616464726573730060448201526064016103b4565b80600260008282546109ac9190610cf8565b90915550506001600160a01b038216600090815260208190526040812080548392906109d9908490610cf8565b90915550506040518181526001600160a01b03831690600090600080516020610d798339815191529060200160405180910390a35050565b600580546001600160a01b038381166001600160a01b0319831681179093556040519116919082907f8be0079c531659141344cd1fd0a4f28419497f9722a3daafe3b4186f6b6457e090600090a35050565b6001600160a01b038216610ac35760405162461bcd60e51b815260206004820152602160248201527f45524332303a206275726e2066726f6d20746865207a65726f206164647265736044820152607360f81b60648201526084016103b4565b6001600160a01b03821660009081526020819052604090205481811015610b375760405162461bcd60e51b815260206004820152602260248201527f45524332303a206275726e20616d6f756e7420657863656564732062616c616e604482015261636560f01b60648201526084016103b4565b6001600160a01b0383166000908152602081905260408120838303905560028054849290610b66908490610d10565b90915550506040518281526000906001600160a01b03851690600080516020610d798339815191529060200161077a565b80356001600160a01b0381168114610bae57600080fd5b919050565b600060208284031215610bc557600080fd5b610bce82610b97565b9392505050565b60008060408385031215610be857600080fd5b610bf183610b97565b9150610bff60208401610b97565b90509250929050565b600080600060608486031215610c1d57600080fd5b610c2684610b97565b9250610c3460208501610b97565b9150604084013590509250925092565b60008060408385031215610c5757600080fd5b610c6083610b97565b946020939093013593505050565b600060208083528351808285015260005b81811015610c9b57858101830151858201604001528201610c7f565b81811115610cad576000604083870101525b50601f01601f1916929092016040019392505050565b6020808252818101527f4f776e61626c653a2063616c6c6572206973206e6f7420746865206f776e6572604082015260600190565b60008219821115610d0b57610d0b610d62565b500190565b600082821015610d2257610d22610d62565b500390565b600181811c90821680610d3b57607f821691505b60208210811415610d5c57634e487b7160e01b600052602260045260246000fd5b50919050565b634e487b7160e01b600052601160045260246000fdfeddf252ad1be2c89b69c2b068fc378daa952ba7f163c4a11628f55a4df523b3efa2646970667358221220c082fbe4fce529b7b21416961075b58b4be9cf56f3ca66efced16d7f06c185cd64736f6c63430008060033"
}